:100000006F60706813000000130000001300000010
:100010001300000013000000130000001300000094
:100020001300000013000000130000001300000084
:08003000130000007300100032
:100038000000000000000000F46A0000046B0000EB
:1000480000000000CC6D000000000000000000006F
:10005800CE6D0000D06D0000000000000000000020
:10006800D26D000000000000D46D00000000000008
:10007800D66D0000D86D0000DA6D0000DC6D000060
:10008800DE6D0000E06D00001A5D0000CE5D00002E
:10009800825E0000365F0000EA5F0000EC6D000041
:1000A800EE6D0000F06D0000F26D0000F46D0000D0
:1000B800F66D0000F86D0000FA6D0000FC6D0000A0
:1000C800FE6D0000006E0000026E00009E600000E1
:1000D800066E0000E86200000A6E00000C6E000068
:1000E800A86300006064000020650000146E000032
:1000F800166E0000186E00001A6E00001C6E0000DC
:100108001E6E000026560000EA560000AE5700009A
:10011800B6610000286E00002A6E00002C6E0000F8
:10012800BC680000306E0000326E0000346E0000C3
:10013800366E0000386E0000E06500003C6E00007E
:10014800765800003A590000C8660000FC670000B5
:10015800466E0000486E00004A6E00004C6E0000BB
:100168004E6E0000506E0000526E0000546E00008B
:10017800566E0000586E00005A6E0000A48C0000F5
:100188005E6E0000606E00004A5C0000FC590000D2
:10019800C05A00008A5B00006A6E00007C6900009B
:1001A8006E6E0000706E0000726E00003C6A000007
:1001B800766E0000786E00007A6E00007C6E00009B
:1001C8007E6E0000806E0000826E0000846E00006B
:1001D8000000000000000000000000000000000017
:1001E8000000000000000000000000000000000007
:0801F8000000000000000000FF
:100200003D432A876373C3029377F700BDEFADE5E3
:10021000937606FF3D8ABA960CC34CC30CC74CC7F5
:100220004107E36BD7FE11E28280B306C3408A0622
:100230009702000096966780A6002307B700A306E2
:10024000B7002306B700A305B7002305B700A30432
:10025000B7002304B700A303B7002303B700A3022A
:10026000B7002302B700A301B7002301B700A30022
:10027000B7002300B700828093F5F50F93968500B1
:10028000D58D93960501D58D61B79396270097027A
:10029000000096968682E78086FA9680C1171D8FA9
:1002A0003E96E374C3F8A5B7011122CE00102326B1
:1002B000A4FE37F500E08328450037F500E093F809
:1002C000E8FF2322150183A801820965130505F4BF
:1002D00033D5A802AA8601470325C4FEAA87014890
:1002E00037F500E03303F702B308D8029A98338356
:1002F000F60233B6F6029A85B387C8003E860CC96B
:1003000050C9B7F700E09843B7F700E0136707015B
:1003100098C3B7F700E09843B7F700E013671702F8
:1003200098C30100B7F700E0DC4313F717008547D7
:10033000E31AF7FEB7F700E09843B7F700E0799BC0
:1003400098C30100724405618280011106CE22CC5F
:100350000010AA8E2E8E32833685BA853E86C286DE
:100360004687F687A307F4FEF2872307F4FE9A87F1
:10037000A306F4FEAA872306F4FEAE87A305F4FEC7
:10038000B2872305F4FEB687A304F4FEBA872304DC
:10039000F4FE8347F4FE93068004014681453E85C2
:1003A0000D2C8347E4FE93068004014681453E857B
:1003B0000D248347D4FE93068004014681453E8583
:1003C000092C8347C4FE93068004014681453E857F
:1003D00009248347B4FE93068004014681453E8587
:1003E000CD2A8347A4FE93068004014681453E85BD
:1003F000CD22834794FE93068004014681453E85C5
:10040000C92A834784FE93068004014681453E85C0
:10041000C9228347440093068004014681453E85F6
:100420004D2A8347040093068004014681453E859A
:100430004D228347840093068004014681453E8512
:10044000492A0100F240624405618280011106CE12
:1004500022CC00102326A4FE2324B4FEB2873687C4
:100460002313F4FEBA872312F4FE85450965EF7065
:100470008020B707055083C7070013F7F70FB707AA
:1004800005501377F7FC1377F70F2380E700B707C2
:10049000055083C7070013F7F70FB7070550136719
:1004A00027041377F70F2380E700B707055083C7AA
:1004B000170013F7F70FB7070550659B1377F70F72
:1004C000A380E700B7070550035744FE2392E700D7
:1004D000B7070550035764FE2393E700B70705509D
:1004E0000327C4FE98C7B7070550032784FED8C763
:1004F000B707055083C7170013F7F70FB707055065
:100500001377F7031377F70FA380E700370705503A
:10051000B7070550034717001377F70FA380E700CD
:10052000B707055083C7270013F7F70FB707055024
:10053000136747001377F70F2381E700B7070550CC
:1005400083C7170013F7F70FB70705501367170096
:100550001377F70FA380E700B707055083C707009D
:1005600013F7F70FB7070550136717001377F70F47
:100570002380E7008D4513056005EF50C00013058B
:100580006005EF40907C0100F2406244056182808A
:10059000011122CE00102326A4FE8327C4FE9583DA
:1005A00013F77700B70700200A0793870704BA9765
:1005B0009C439C470327C4FE7D8B85463397E6000A
:1005C000F98FB337F00093F7F70F3E85724405615A
:1005D0008280797106D622D40018232EA4FC232C05
:1005E000B4FCB2872328D4FCA30BF4FC232004FE24
:1005F000232204FE232404FE8327C4FD958393F75E
:10060000F70F9D8BA307F4FE8327C4FD93F7F70F25
:10061000FD8B2307F4FE8347F4FE91E785451145E2
:10062000EF70C00991A80347F4FE85476317F700F0
:1006300085452145EF70800881A00347F4FE894776
:100640006317F70085454145EF70400735A0034724
:10065000F4FE8D476318F700854513050002EF701F
:10066000E00519A80347F4FE91476317F700854595
:1006700013050004EF7080048347E4FE0547B317B9
:10068000F700C207C1832310F4FE032784FD8547CA
:100690006317F702832704FDC207C183A183C20742
:1006A000C18389E78D472322F4FE11A8832704FD27
:1006B000C207C183A183C207C1832322F4FE83271B
:1006C00004FDC207C18393F7F70F2324F4FE034709
:1006D000F4FEB70700200A0793870704BA979C43E4
:1006E000130704FEBA853E85EF60F009032784FDF9
:1006F00085476319F7020347F4FEB70700200A078E
:1007000093870704BA9794438347E4FE0547B317DA
:10071000F700C207C183034774FD3A86BE8536855C
:10072000EF6010290100B2502254456182805D7152
:1007300086C6A2C48008232EA4FACD6703AE47273D
:1007400013874727032347001387472783288700FA
:10075000138747270328C70013874727084B1387AA
:1007600047274C4B13874727104F13874727544F72
:1007700013874727185393874727DC532324C4FD47
:10078000232664FC232814FD232A04FD232CA4FC27
:10079000232EB4FC2320C4FE2322D4FE2324E4FE13
:1007A0002326F4FE8327C4FB8A07130704FFBA97A6
:1007B00083A787FD3E85EF40305B0100B6402644AD
:1007C000616182801D7186CEA2CC80102326A4FA9E
:1007D0002324B4FA85450325C4FAEF100060AA87E4
:1007E0003E871306D006CD679385C7293A85EF402B
:1007F0002006832784FAB337F00093F7F70F3E877C
:100800001306F006CD679385C7293A85EF4040046B
:10081000832784FABD832315F4FE8357A4FE85073E
:100820003E87832784FAB3D7E7022314F4FE032517
:10083000C4FAEF10E060B7370140938707C0232662
:10084000F4FE0327C4FAA54763ECE7088327C4FA3C
:1008500013972700CD679387C779BA979C43828700
:10086000B7370140938707C02326F4FE95A8B70742
:1008700000402326F4FEADA0B70700409387074051
:100880002326F4FEB1A8B7170040938707802326DC
:10089000F4FEB9A0B7170040938707C02326F4FEE3
:1008A00081A0B71700402326F4FE1DA8B71700400B
:1008B000938707402326F4FE25A0B737014093878E
:1008C00007402326F4FE29A8B7570140938707C0A5
:1008D0002326F4FE31A0B75701402326F4FE010081
:1008E000232E04FC232004FE231204FE835784FEDF
:1008F0002310F4FE8357A4FE231EF4FC231104FEF0
:10090000231F04FC230204FE9307C4FDBE850325B8
:10091000C4FEEF70A008054685450325C4FEEF70B0
:10092000501885450325C4FEEF70B04ECD6703AE69
:100930004727138747270323470013874727832821
:100940008700138747270328C70013874727084BCB
:10095000138747274C4B13874727104F1387472789
:10096000544F13874727185393874727DC53232A6D
:10097000C4FB232C64FA232E14FB232004FD232222
:10098000A4FC2324B4FC2326C4FC2328D4FC232A5F
:10099000E4FC232CF4FC8327C4FA93F7F70F8A07AF
:1009A000130704FFBA9783A747FC8D453E85EF40A8
:1009B000903D8327C4FA8A07130704FFBA9783A7D9
:1009C00047FC3E85EF40703885450325C4FEEF7037
:1009D000D0010100F640664425618280797106D617
:1009E00022D40018232EA4FC232CB4FC032784FD5E
:1009F000896793871771B337F70093F7F70F3E872F
:100A000013065003CD679385072E3A85EF30506467
:100A1000B7370140938707C02326F4FE8327C4FD20
:100A2000C183BD8B2547636EF70613972700CD67FB
:100A30009387477CBA979C438287B7370140938757
:100A400007C02326F4FEB1A8B70700402326F4FE12
:100A500089A8B7070040938707402326F4FE91A09A
:100A6000B7170040938707802326F4FE1DA8B71709
:100A70000040938707C02326F4FE25A0B737014026
:100A8000938707402326F4FE29A8B7570140938790
:100A900007C02326F4FE31A0B75701402326F4FEF9
:100AA00001008327C4FE83D7C7022315F4FE035732
:100AB000A4FE832784FD3307F702896793870771B4
:100AC000B357F7022314F4FE8327C4FDA1838D8B53
:100AD00081EB8327C4FE035784FE239AE702A9A86B
:100AE0008327C4FDA18313F7370085476319F700F7
:100AF0008327C4FE035784FE239CE70235A883277F
:100B0000C4FDA18313F7370089476319F7008327D2
:100B1000C4FE035784FE239EE70239A88327C4FD41
:100B2000A18313F737008D476318F7008327C4FEAE
:100B3000035784FE2390E7040100B250225445611C
:100B400082805D7186C6A2C48008232EA4FA232C5D
:100B5000B4FA232AC4FA8327C4FBC1838D453E859A
:100B6000EF10A027AA873E871306D00ACD6793858A
:100B7000072E3A85EF30D04D032744FB89679387D2
:100B80001771B337F70093F7F70F3E871306F00A94
:100B9000CD679385072E3A85EF30904B232E04FCCA
:100BA000232004FE231204FE232604FC232804FC35
:100BB000232A04FC232C04FC231504FE8327C4FBF6
:100BC000C183BD8B3E85EF10A0278327C4FB93F71D
:100BD000F70F93068031014685453E85DD3A854510
:100BE0000545EF60B02DB7370140938707C0232636
:100BF000F4FE8327C4FBC183BD8B2547636EF706D4
:100C000013972700CD679387C77EBA979C43828747
:100C1000B7370140938707C02326F4FEB1A8B70772
:100C200000402326F4FE89A8B707004093870740B9
:100C30002326F4FE91A0B717004093870780232650
:100C4000F4FE1DA8B7170040938707C02326F4FEC3
:100C500025A0B7370140938707402326F4FE29A833
:100C6000B7570140938707C02326F4FE31A0B7573A
:100C700001402326F4FE01008327C4FB13D7C700DD
:100C80008D47631AF7008545B70716001385070CD3
:100C9000EF60805515AA8327C4FB13D7C700C5474B
:100CA000631AF7008545B707180013850710EF6032
:100CB000A05319AA8327C4FB13D7C700C947631AD7
:100CC000F7008545B707180013850720EF60C0516E
:100CD000E5A88327C4FB13D7C700CD47631AF700E5
:100CE0008545B707180013850730EF60E04FE9A886
:100CF0008327C4FB13D7C70093072002631AF700AA
:100D00008545B7171A0013850780EF60E04D6DA881
:100D10008327C4FB13D7C70093073002631AF70079
:100D20008545B7171A00138507C0EF60E04B69A827
:100D30008327C4FB13D7C700930710036317F7007B
:100D400085450565EF60404A41A08327C4FB13D762
:100D5000C70093071007631AF7008545B70700809F
:100D600013854700EF60404885A08327C4FB13D755
:100D7000C70093073008631AF7008545B70713804B
:100D800013850701EF60404681A08327C4FB13D77A
:100D9000C70093071009631AF7008545B707158048
:100DA00013850702EF60404405A08327C4FB13D7D7
:100DB000C700930730096319F7008545B707158009
:100DC00013850704EF60404203A70182832784FB59
:100DD000B357F702C1832315F4FE03A7018283579B
:100DE000A4FE8507BE86832784FBB387F602B3572C
:100DF000F7022314F4FE035784FE832744FB3307D2
:100E0000F702896793870771B357F7022313F4FE3C
:100E1000835784FEFD17C207C1832310F4FE835756
:100E2000A4FE231EF4FC231104FE231F04FC230252
:100E300004FE9307C4FDBE850325C4FEEF60103693
:100E4000930700072316F4FC85472317F4FC2318A7
:100E500004FC835764FE2319F4FC8947231AF4FC2D
:100E60008947231BF4FC231C04FC231D04FC83275B
:100E7000C4FBA1838D8B9DE39307C4FCBE85032532
:100E8000C4FEEF609049A1450325C4FEEF706048A1
:100E900091450325C4FEEF70805C45A08327C4FB09
:100EA000A18313F7370085476315F7029307C4FC46
:100EB000BE850325C4FEEF601060A1450325C4FE76
:100EC000EF70E049930500400325C4FEEF70E05D3C
:100ED000ADA08327C4FBA18313F7370089476314B0
:100EE000F7029307C4FCBE850325C4FEEF60D07AE9
:100EF000A1450325C4FEEF70204C91450325C4FE97
:100F0000EF7000601DA88327C4FBA18313F737008F
:100F10008D476314F7029307C4FCBE850325C4FE06
:100F2000EF704015A1450325C4FEEF70A04D930559
:100F300000400325C4FEEF70606185450325C4FEB3
:100F4000EF70203085450325C4FEEF70002A0100B4
:100F5000B640264461618280797106D622D4001899
:100F6000232EA4FC8327C4FDB337F00093F7F70FBB
:100F70003E8713061004CD67938547323A85EF30DC
:100F8000300D8327C4FD9C43BD8B0547B317F70085
:100F900093960701C1828327C4FD9C4313D7570052
:100FA000B70700200A0793870704BA979C43368740
:100FB00098CB8327C4FDDC43BD8B0547B317F700EF
:100FC00093960701C1828327C4FDDC4313D75700E2
:100FD000B70700200A0793870704BA979C43368710
:100FE00098CB8327C4FDDC472326F4FE010083272A
:100FF000C4FE1387F7FF2326E4FEF5FB8327C4FD19
:10100000DC43BD8B0547B317F70093960701C182F8
:101010008327C4FDDC4313D75700B70700200A0716
:1010200093870704BA979C433687D8CB8327C4FDA0
:10103000DC472324F4FE0100832784FE1387F7FF97
:101040002324E4FEF5FB8327C4FD9C43BD8B0547A9
:10105000B317F70093960701C1828327C4FD9C4311
:1010600013D75700B70700200A0793870704BA97DA
:101070009C433687D8CB0100B25022544561828010
:10108000797106D622D40018232EA4FC8327C4FD30
:10109000B337F00093F7F70F3E8713064005CD678F
:1010A000938547323A85EF30A07A8327C4FDDC432D
:1010B000BD8B0547B317F70093960701C1828327BD
:1010C000C4FDDC4313D75700B70700200A079387F6
:1010D0000704BA979C433687D8CB8327C4FD9C432B
:1010E000BD8B0547B317F70093960701C18283278D
:1010F000C4FD9C4313D75700B70700200A07938706
:101100000704BA979C433687D8CB8327C4FDDC47B6
:101110002326F4FE01008327C4FE1387F7FF23264E
:10112000E4FEF5FB8327C4FD9C43BD8B0547B31745
:10113000F70093960701C1828327C4FD9C4313D710
:101140005700B70700200A0793870704BA979C4304
:10115000368798CB8327C4FDDC472324F4FE0100A7
:10116000832784FE1387F7FF2324E4FEF5FB832700
:10117000C4FDDC43BD8B0547B317F7009396070109
:10118000C1828327C4FDDC4313D75700B707002073
:101190000A0793870704BA979C43368798CB83271F
:1011A000C4FDDC472322F4FE0100832744FE13879D
:1011B000F7FF2322E4FEF5FB0100B2502254456103
:1011C0008280797106D622D40018232EA4FCAE8723
:1011D000A30DF4FC8327C4FDB337F00093F7F70F9A
:1011E0003E8713069006CD67938547323A85EF30E8
:1011F00020668327C4FD9C43BD8B0547B317F700CA
:1012000093960701C1828327C4FD9C4313D75700DF
:10121000B70700200A0793870704BA979C433687CD
:10122000D8CB8347B4FD95CB8327C4FDDC43BD8B6E
:101230000547B317F70093960701C1828327C4FDC2
:10124000DC4313D75700B70700200A07938707042A
:10125000BA979C43368798CB0DA88327C4FDDC43FF
:10126000BD8B0547B317F70093960701C18283270B
:10127000C4FDDC4313D75700B70700200A07938744
:101280000704BA979C433687D8CB8327C4FDDC4735
:101290002326F4FE01008327C4FE1387F7FF2326CD
:1012A000E4FEF5FB8327C4FD9C43BD8B0547B317C4
:1012B000F70093960701C1828327C4FD9C4313D78F
:1012C0005700B70700200A0793870704BA979C4383
:1012D000368798CB8327C4FDDC472324F4FE010026
:1012E000832784FE1387F7FF2324E4FEF5FB83277F
:1012F000C4FD9C43BD8B0547B317F70093960701C8
:10130000C1828327C4FD9C4313D75700B707002031
:101310000A0793870704BA979C433687D8CB83275D
:10132000C4FDDC43BD8B0547B317F7009396070157
:10133000C1828327C4FDDC4313D75700B7070020C1
:101340000A0793870704BA979C43368798CB010016
:10135000B250225445618280797106D622D4001899
:10136000232EA4FC8327C4FDB337F00093F7F70FB7
:101370003E8713065008CD67938547323A85EF3094
:10138000204DA30704FE8327C4FD9C43BD8B054766
:10139000B317F70093960701C1828327C4FD9C43CE
:1013A00013D75700B70700200A0793870704BA9797
:1013B0009C433687D8CB8327C4FDDC43BD8B0547D0
:1013C000B317F70093960701C1828327C4FDDC435E
:1013D00013D75700B70700200A0793870704BA9767
:1013E0009C43368798CB8327C4FDDC472324F4FE37
:1013F0000100832784FE1387F7FF2324E4FEF5FB17
:101400008327C4FD9C43BD8B0547B317F700939614
:101410000701C1828327C4FD9C4313D75700B70738
:1014200000200A0793870704BA979C43368798CB16
:101430008327C4FDDC472322F4FE0100832744FEFA
:101440001387F7FF2322E4FEF5FB8327C4FDDC436B
:101450003E85EFF0EF93AA8781C78547A307F4FE87
:101460008327C4FD9C43BD8B0547B317F7009396B4
:101470000701C1828327C4FD9C4313D75700B707D8
:1014800000200A0793870704BA979C433687D8CB76
:101490008327C4FDDC472320F4FE0100832704FEDC
:1014A0001387F7FF2320E4FEF5FB8347F4FE3E8518
:1014B000B250225445618280797106D622D4001838
:1014C000232EA4FCAE87A30DF4FC8327C4FDB33701
:1014D000F00093F7F70F3E871306700ACD679385E8
:1014E00047323A85EF30C036930700F8A307F4FE81
:1014F00009AA0347B4FD8347F4FEF98F93F7F70F6A
:1015000095CB8327C4FDDC43BD8B0547B317F7009C
:1015100093960701C1828327C4FDDC4313D757008C
:10152000B70700200A0793870704BA979C433687BA
:1015300098CB0DA88327C4FDDC43BD8B0547B317AB
:10154000F70093960701C1828327C4FDDC4313D7BC
:101550005700B70700200A0793870704BA979C43F0
:101560003687D8CB8347F4FE8583A307F4FE832711
:10157000C4FDDC472324F4FE0100832784FE138787
:10158000F7FF2324E4FEF5FB8327C4FD9C43BD8BBA
:101590000547B317F70093960701C1828327C4FD5F
:1015A0009C4313D75700B70700200A079387070407
:1015B000BA979C43368798CB8327C4FDDC47232208
:1015C000F4FE0100832744FE1387F7FF2322E4FE85
:1015D000F5FB8327C4FD9C43BD8B0547B317F7007C
:1015E00093960701C1828327C4FD9C4313D75700FC
:1015F000B70700200A0793870704BA979C433687EA
:10160000D8CB8347F4FEE39607EE0325C4FDA93348
:10161000AA87FD17B337F00093F7F70F3E85B25056
:10162000225445618280397106DE22DC26DA800090
:101630002326A4FCAE87A305F4FC8327C4FCB337A0
:10164000F00093F7F70F3E871306000CCD679385E4
:1016500047323A85EF30C01FA30704FEA147230796
:10166000F4FE8327C4FC9C43BD8B0547B317F700EA
:1016700093960701C1828327C4FC9C4313D757006C
:10168000B70700200A0793870704BA979C43368759
:10169000D8CB8327C4FCDC472324F4FE0100832736
:1016A00084FE1387F7FF2324E4FEF5FB8327C4FCA5
:1016B000DC43BD8B0547B317F70093960701C18242
:1016C0008327C4FCDC4313D75700B70700200A0761
:1016D00093870704BA979C43368798CB7DA88327C6
:1016E000C4FC9C43BD8B0547B317F70093960701D5
:1016F000C1828327C4FC9C4313D75700B70700203F
:101700000A0793870704BA979C433687D8CB832769
:10171000C4FCDC472322F4FE0100832744FE138728
:10172000F7FF2322E4FEF5FB8327C4FC9C43BD8B1B
:101730000547B317F70093960701C1828327C4FCBE
:101740009C4313D75700B70700200A079387070465
:10175000BA979C43368798CB8327C4FCDC47232069
:10176000F4FE0100832704FE1387F7FF2320E4FE25
:10177000F5FB8347F4FE860793948701E184832772
:10178000C4FCDC433E85EFE0BFE0AA87E207E187C7
:10179000C58FE207E187A307F4FE8347E4FE1387C2
:1017A000F7FF2307E4FE85FF8327C4FC9C43BD8B22
:1017B0000547B317F70093960701C1828327C4FC3E
:1017C0009C4313D75700B70700200A0793870704E5
:1017D000BA979C433687D8CB8327C4FCDC47232E9B
:1017E000F4FC01008327C4FD1387F7FF232EE4FCDC
:1017F000F5FB8347B4FCBE850325C4FCD93283477F
:10180000F4FE3E85F2506254D2542161828001116F
:1018100006CE22CC00102326A4FEAE873287A30575
:10182000F4FEBA872305F4FE8327C4FEB337F00025
:1018300093F7F70F3E8713062029CD67938547322C
:101840003A85EF30E0000325C4FEEFF0EFF0832788
:10185000C4FE83C78700860793F7F70FBE8503256D
:10186000C4FE99398347B4FEBE850325C4FEA93161
:101870008347A4FEBE850325C4FE3D390325C4FE6F
:10188000EFF01F800100F2406244056182807971AF
:1018900006D622D40018232EA4FCAE87A30DF4FC98
:1018A0008327C4FDB337F00093F7F70F3E87130685
:1018B000402ACD67938547323A85EF207079A30798
:1018C00004FE0325C4FDEFF02FE98327C4FD83C781
:1018D0008700860793F7F70FBE850325C4FDE93E11
:1018E0008347B4FDBE850325C4FDF9360325C4FD39
:1018F000EFF00FF90325C4FDEFF00FE68327C4FDD9
:1019000083C787008607E207E18793E71700E207AE
:10191000E18793F7F70FBE850325C4FD713E85452A
:101920000325C4FD0933AA87A307F4FE0325C4FDDC
:10193000EFF00FF58347F4FE3E85B2502254456127
:101940008280797106D622D400182326A4FEAE87A1
:101950002322C4FE2320D4FE232EE4FCA305F4FEA0
:101960008327C4FEB337F00093F7F70F3E871306C3
:10197000F02BCD67938547323A85EF20706D0327B2
:1019800004FE8327C4FDB307F740B337F00093F795
:10199000F70F3E871306002CCD67938547323A85B3
:1019A000EF20106B8327C4FE032704FE98C3832710
:1019B000C4FE0327C4FDD8C38327C4FE0347B4FE77
:1019C0002384E7008327C4FE032744FED8C7C1460B
:1019D00005468545032504FEEFE0BFBFD146054619
:1019E00085450325C4FDEFE0DFBE0100B25022545F
:1019F00045618280011122CE00102326A4FEAE870D
:101A0000A305F4FED1670327C4FE0A079387478125
:101A1000BA979C433E878347B4FEC207C18323160F
:101A2000F7000100D1670327C4FE0A0793874781A7
:101A3000BA979C4383D78700C207C18393F70708EF
:101A4000F5F3D1670327C4FE0A0793874781BA9746
:101A50009C4383D7C7000100724405618280011155
:101A600022CE00102326A4FEAE872315F4FE835752
:101A7000A4FEA183C207C18393F6F70FD1670327A2
:101A8000C4FE0A0793874781BA979C433E87939782
:101A90000601C1832316F7000100D1670327C4FEA6
:101AA0000A0793874781BA979C4383D78700C20769
:101AB000C18393F70708F5F38357A4FE93F6F70F56
:101AC000D1670327C4FE0A0793874781BA979C43CF
:101AD0003E8793970601C1832316F7000100D16763
:101AE0000327C4FE0A0793874781BA979C4383D78D
:101AF0008700C207C18393F70708F5F3010072441A
:101B0000056182805D7186C6A2C480082326A4FC7C
:101B10002324B4FC2322C4FC2320D4FC232EE4FA87
:101B2000232CF4FA232A04FBD1670327C4FC0A07F9
:101B300093874781BA979C433E85EF50B0498545CE
:101B40000545EF50B037032704FC93073012631D9F
:101B5000F7000327C4FB930750126317F70085456E
:101B60000545EF50606825A0032704FC896793872B
:101B7000A714631EF7000327C4FB89679387C71464
:101B80006317F700854537152000EF50E065832780
:101B9000C4FC91E785450565EF50503225A0032729
:101BA000C4FC85476317F70085451165EF50703514
:101BB00011A80327C4FC89476316F70085452165F2
:101BC000EF503034832704FC93F7F70F93068031EE
:101BD000054685453E85EFE0DF9F8327C4FB93F7ED
:101BE000F70F93068031054685453E85EFE07F9EE1
:101BF000032784FBC167F917630DF700832784FB74
:101C000093F7F70F93068034054681453E85EFE054
:101C10005F9C032744FB9307F00F630DF7008327B6
:101C200044FB93F7F70F93060031014685453E8547
:101C3000EFE03F9A232E04FC232004FE232204FE1F
:101C4000232404FE231604FE231E04FC93074010E5
:101C5000231FF4FC231004FE032784FC854763053F
:101C6000F702832784FC81CF032784FC8947630321
:101C7000F702032784FC8D476304F7020DA82311A4
:101C800004FE231204FE25A0231104FE854723121F
:101C9000F4FE31A889472311F4FE231204FE01A8A3
:101CA00089472311F4FE85472312F4FE0100231710
:101CB00004FE03A70182832744FCB357F7022317CE
:101CC000F4FE03A70182832744FCB377F70291E770
:101CD0008357E4FEFD172317F4FE0357E4FE930732
:101CE000F00763F7E700930780032317F4FE49A882
:101CF0000357E4FE9307F00363F7E700930700033D
:101D00002317F4FEB5A80357E4FEFD4763F7E70089
:101D1000930780022317F4FEA5A00357E4FEBD47F6
:101D200063F7E700930700022317F4FE91A8035717
:101D3000E4FE9D4763F6E700E1472317F4FE89A020
:101D40000357E4FE8D4763F6E700C1472317F4FE0F
:101D500005A80357E4FE854763F6E700A14723176C
:101D6000F4FE39A88357E4FE81C7231704FE09A8AF
:101D700013067021CD67938507370145EF20502D5D
:101D80008357E4FE2314F4FE930700202313F4FE8C
:101D9000231504FE9D472316F4FED1670327C4FCD8
:101DA0000A0793874781BA979C433E879307C4FDF0
:101DB000BE853A85EF507029D1670327C4FC0A0716
:101DC00093874781BA979C4385453E85EF5070378E
:101DD0000100B640264461618280797122D60018E4
:101DE000232EA4FC232CB4FC8547A307F4FE032771
:101DF000C4FD0A079387C18EBA979C4399EB0327CA
:101E0000C4FD0A079387C18EBA97032784FD98C340
:101E100015A00327C4FD0A079387C18EBA979C4378
:101E2000032784FD6316F7008547A307F4FE19A076
:101E3000A30704FE8347F4FE3E8532544561828049
:101E4000011106CE22CC00102326A4FE8327C4FE57
:101E500081EB8545856713850780EF5030066DA8B7
:101E60000327C4FE85476317F70085450545EF50F6
:101E700050095DA00327C4FE89476317F700854515
:101E80000945EF50100849A80327C4FE8D47631782
:101E9000F70085451145EF50D006BDA80327C4FEC5
:101EA00091476317F70085452145EF509005ADA098
:101EB0000327C4FE95476317F70085454145EF505A
:101EC000500499A80327C4FE99476318F700854575
:101ED00013050002EF50F00281A00327C4FE9D47C6
:101EE0006317F70085450965EF50407D35A003274E
:101EF000C4FEA1476318F700854537050800EF5079
:101F0000E07B19A80327C4FEA5476317F7008545A2
:101F100037051000EF50807A0100F24062440561FD
:101F20008280797122D60018232EA4FCB737014095
:101F3000938707C02326F4FE231504FE0327C4FD60
:101F4000A54763ECE7088327C4FD13972700D167F3
:101F500093870782BA979C438287B737014093875C
:101F600007C02326F4FE95A8B70700402326F4FEF9
:101F7000ADA0B7070040938707402326F4FEB1A821
:101F8000B7170040938707802326F4FEB9A0B71740
:101F90000040938707C02326F4FE81A0B7170040B6
:101FA0002326F4FE1DA8B717004093870740232679
:101FB000F4FE25A0B7370140938707402326F4FE9F
:101FC00029A8B7570140938707C02326F4FE31A004
:101FD000B75701402326F4FE01000327C4FD0A077A
:101FE00093874191BA9798438947631FF7008327E6
:101FF000C4FE83D747021397070141838D47B35728
:10200000F7022315F4FE39A08327C4FE83D74702C5
:102010002315F4FE8357A4FE3E8532544561828029
:10202000797122D60018232EA4FCB737014093877C
:1020300007C02326F4FE0327C4FDA54763ECE70889
:102040008327C4FD13972700D16793878784BA97A6
:102050009C438287B7370140938707C02326F4FE4D
:1020600095A8B70700402326F4FEADA0B7070040AF
:10207000938707402326F4FEB1A8B7170040938743
:1020800007802326F4FEB9A0B7170040938707C046
:102090002326F4FE81A0B71700402326F4FE1DA8D6
:1020A000B7170040938707402326F4FE25A0B737D3
:1020B0000140938707402326F4FE29A8B757014023
:1020C000938707C02326F4FE31A0B757014023268B
:1020D000F4FE01008327C4FE23920702010032545C
:1020E00045618280011122CE00102326A4FEAE8716
:1020F000A305F4FE0100D1670327C4FE0A079387F6
:102100000787BA979C4383D70700C207C18393F719
:102110000708F5D3D1670327C4FE0A07938707870B
:10212000BA979C433E878347B4FEC207C1832312FC
:10213000F7000100724405618280011106CE22CCB5
:1021400000102326A4FE2324B4FE2322C4FE8327EA
:1021500084FEB337F00093F7F70F3E8713061004A1
:10216000CD679385473B3A85EF20806E29A883276A
:1021700084FE138717002324E4FE83C70700BE856F
:102180000325C4FE8537832744FE1387F7FF2322E8
:10219000E4FEF1FF0100F24062440561828001111A
:1021A00006CE22CC00102326A4FEAE87A305F4FEA3
:1021B000D1670327C4FE0A0793870787BA979C4312
:1021C0003E878347B4FE3E86930550523A85EF60C2
:1021D0006070138701848327C4FEBA9783C7070002
:1021E00081453E85EF30203A8347B4FE81CF138787
:1021F00001848327C4FEBA9783C707003E85EF306A
:10220000C03419A8138701848327C4FEBA9783C7F3
:1022100007003E85EF3040350100F2406244056121
:102220008280011122CE00102326A4FE2324B4FEB6
:10223000D1670327C4FE0A0793870787BA979C4391
:1022400083D70700C207C18393F707028DC7D16701
:102250000327C4FE0A0793870787BA979C4383D74F
:102260004700C207C18313F7F70F832784FE23803B
:10227000E700854711A081473E8572440561828051
:10228000797106D622D40018232EA4FC232CB4FC8A
:10229000232AC4FC2328D4FC032744FD832704FD00
:1022A0003D8F8327C4FDB207F98F93B7170093F7CB
:1022B000F70F3E871306A00ACD679385473B3A8503
:1022C000EF200059832744FD13D78700832704FD9F
:1022D000A183B307F74093B7170093F7F70F3E8733
:1022E0001306B00ACD679385473B3A85EF204056E9
:1022F000832744FD93F7F70FE146014685453E8568
:10230000EFE02FAD832704FD93F7F70F93068004CA
:10231000014681453E85EFE0CFAB85450545EF5051
:10232000E039032744FDC167FD17F98F0D671307D7
:1023300007386387E7200D67130707386369F704D9
:102340000567130757166381E716056713075716C6
:10235000636FF7001307F022638AE70C13076030FE
:102360006381E710130760126388E70865A60967B1
:1023700013078736638BE7160D671307071263870A
:10238000E71809671307A7146380E71461A61567A8
:102390001307A738638EE72615671307A73863620C
:1023A000F7021167130787386380E7201567130763
:1023B00087126385E722116713074712638CE71AB8
:1023C00091AE19671307C7386388E72A196713079F
:1023D000C7386368F7001967130767106384E72637
:1023E00015AE1D671307E7106382E72C1D671307FF
:1023F000E7386387E72E39AEB7070140D44FB707F8
:102400000140370700FC7D17758FD8CFB707014013
:10241000D843B70701406D9BD8C3B7070140D843E5
:10242000B707014013674700D8C3EDA4B7070140C1
:10243000D44FB7070140370700FC7D17758FD8CF01
:10244000B7070140D44FB707014037070004558F45
:10245000D8CFB7070140D843B70701406D9BD8C319
:1024600055ACB7070140D44FB7070140370700FC10
:102470007D17758FD8CFB7070140D44FB7070140FC
:1024800037070004558FD8CFB7070140D843B707A7
:1024900001406D9BD8C3B7070140D843B70701403F
:1024A00013674700D8C3BDA4B7070140D843B70797
:1024B00001405D9BD8C3B7070140D843B70701402F
:1024C00013678700D8C3B9A4B7070140D843B7073B
:1024D00001401377F7FCD8C3B7070140D843B707CB
:1024E000014013670701D8C335A4B7070140D8439B
:1024F000B70701401377F7FCD8C3B7070140D843AB
:10250000B707014013670703D8C329A4B7070140E1
:10251000D44FB70701403707FDFF7D17758FD8CF20
:10252000B7070140D44F832744FDA18313970701C8
:10253000B70703007D8FB7070140558FD8CFD9AAC1
:10254000B7070140D44FB70701403707FDFF7D179C
:10255000758FD8CFB7070140D44F832744FDA1839F
:1025600013970701B70703007D8FB7070140558F09
:10257000D8CF4DA2B7070140D44FB7070140370766
:10258000F4FF7D17758FD8CFB7070140D44F83274D
:1025900044FDA18313972701B7070C007D8FB70770
:1025A0000140558FD8CFBDA2B7070140D44FB70720
:1025B00001403707F4FF7D17758FD8CFB70701406B
:1025C000D44F832744FDA18313972701B7070C003D
:1025D0007D8FB7070140558FD8CF2DAAB70701408F
:1025E000D44FB70701403707D0FF7D17758FD8CF7D
:1025F000B7070140D44F832744FDA18313974701B8
:10260000B70730007D8FB7070140558FD8CF19A28B
:10261000B7070140D44FB70701403707D0FF7D17F8
:10262000758FD8CFB7070140D44F832744FDA183CE
:1026300013974701B70730007D8FB7070140558FCB
:10264000D8CFC9A8B7070140D44FB7070140370713
:1026500040FF7D17758FD8CFB7070140D44F832730
:1026600044FDA18313976701B707C0007D8FB707AB
:102670000140558FD8CF79A8B7070140D44FB7078D
:102680000140370740FF7D17758FD8CFB70701404E
:10269000D44F832744FDA18313976701B707C00078
:1026A0007D8FB7070140558FD8CFADA0B707014048
:1026B000D44FB7070140370700FD7D17758FD8CF7E
:1026C000B7070140D44F832744FDA18313978701A7
:1026D000B70700037D8FB7070140558FD8CF1DA8DE
:1026E000B7070140D44FB7070140370700FD7D17FA
:1026F000758FD8CFB7070140D44F832744FDA183FE
:1027000013978701B70700037D8FB7070140558FE7
:10271000D8CF01008327C4FD91E785451165EF40BF
:10272000F07969A80327C4FD85476318F70085453C
:1027300037050200EF40F07C51A00327C4FD894714
:102740006318F700854537050400EF40907BBDA076
:102750000327C4FD8D476318F7008545370508003A
:10276000EF40307AA1A80327C4FD91476318F70012
:10277000854537051000EF40D07889A00327C4FDB8
:1027800095476318F700854513050004EF407077FF
:1027900035A00327C4FD99476318F7008545130545
:1027A0000008EF40107619A80327C4FD9D47631762
:1027B000F700854513050010EF40B074232004FE98
:1027C000232204FE232404FE232604FE832784FD03
:1027D0002320F4FE231204FE231304FE231404FE1C
:1027E000231604FEB1472315F4FED1670327C4FD69
:1027F0000A0793870787BA979C433E87930704FE8F
:10280000BE853A85EF50D063D1670327C4FD0A0720
:1028100093870787BA979C4385453E85EF6080057F
:102820000100B250225445618280411106C622C483
:102830000008A1461386018581451385C193EF20C9
:10284000702A0100B240224441018280411106C633
:1028500022C4000883A7C1850547638BE70063880E
:10286000070C0947638DE7000D47638FE702E9A076
:1028700083A781851387170023ACE18475A883A7FC
:1028800081851387170023ACE18403A78185A547C1
:1028900063F1E70AB7070020938707049C4B116791
:1028A000D8CB23AC018471A003A7018685476314AC
:1028B000F7081305F008EFD0BFCDAA87ADC31945BF
:1028C000EFF02FE6AA873E8783A781851D8F9307A8
:1028D000600963F2E7061945EFF08FF483A781855D
:1028E000D3F717D05385F720EFD08022CD6703A60A
:1028F000074083A64740EFB01067AA872E883E8521
:10290000C285EFD0A009AA87139707014183B707B3
:1029100000202398E72C094723A0E18629A8194520
:10292000EFF02FE0AA873E8723ACE18429A00100C5
:1029300021A0010011A001000100B2402244410188
:102940008280411106C622C4000883A7C1850947B9
:10295000637CF7000D47639AE7001945EFF04FECF1
:10296000054723A0E18611A001000100B2402244E6
:1029700041018280011106CE22CC0010232204FEE8
:1029800083C75186638A070E09A8930734FE05465C
:10299000BE8513858195EF20A036930734FEBE8552
:1029A0001D45EFF01F88AA87EDF3034734FEA947C2
:1029B0006314F70C99472322F4FE130744FE930790
:1029C00084FE85463A86BE8513858195EF20806317
:1029D000930784FE138737000D46CD6793858740A4
:1029E0003A85EFD0B05DAA879DEB03A7C1868947E2
:1029F000630DF706054723A6E18613858195EF2031
:102A0000601AAA872322F4FE930744FE81463E867D
:102A10009385419F13858195EF20C05EB9A09307F0
:102A200084FE138737000D46CD679385C7403A85EE
:102A3000EFD0D058AA8795EB03A781868947630614
:102A4000F702054723A4E18613858195EF208015C1
:102A5000AA872322F4FE930744FE81463E8693858F
:102A6000419713858195EF20E05913858195EF20DB
:102A7000600305472382E1860100F240624405615C
:102A80008280397106DE22DC80002326A4FC854783
:102A9000A307F4FE231604FE232404FE232E04FCC5
:102AA00083D781873E87930700236316F700A547E6
:102AB0002324F4FE29A0A1472324F4FE01008DA8BD
:102AC000930750FA2300F4FE832784FE8A07032726
:102AD000C4FCBA978397070093F7F70FA300F4FE9F
:102AE000832784FE8A070327C4FCBA9783972700AD
:102AF0002313F4FE835764FEA183C207C18393F7B7
:102B0000F70F2301F4FE835764FE93F7F70FA30139
:102B1000F4FE930704FE1146BE851145EFF0EFE188
:102B20000945EFD06FF8832784FEFD172324F4FEB8
:102B3000032784FE9307E00FE3F4E7F81385C193BE
:102B4000EF2040062A87894763FFE7028D47232E3F
:102B5000F4FC1307C4FD930704FE81463A86BE8544
:102B60001385C193EF20004A034714FE9307F00F2B
:102B70006308F700034724FE9307F00F6315F7007F
:102B8000A30704FE31A80545EFD00FF28357C4FE1A
:102B9000138717002316E4FE1307F007E370F7FA14
:102BA0008347F4FE3E85F250625421618280397180
:102BB00006DE22DC80002326A4FCA30704FE2316E5
:102BC00004FE232404FE232E04FC83D781873E8742
:102BD000930700236316F700A5472324F4FE29A0DA
:102BE000A1472324F4FE0100832784FEFD1723243C
:102BF000F4FE29A203D781879307F02263EDE70053
:102C0000832784FE8A070327C4FCBA97039707002B
:102C1000A547630FF70C930750FA2300F4FEC5573E
:102C2000A300F4FE832784FE8A070327C4FCBA9717
:102C3000839707002313F4FE835764FEA183C20722
:102C4000C18393F7F70F2301F4FE835764FE93F7D4
:102C5000F70FA301F4FE930704FE1146BE8511454C
:102C6000EFF0AFCD231604FE1385C193EF109073E0
:102C70002A87894763F7E7048D47232EF4FC13075F
:102C8000C4FD930704FE81463A86BE851385C19331
:102C9000EF204037834714FEA20793960701C186B1
:102CA000834724FE139707014187832784FE8A0701
:102CB0000326C4FCB297558F420741872391E70052
:102CC00031A80545EFD04FDE8357C4FE13871700A8
:102CD0002316E4FE1307F007E378F7F80357C4FE62
:102CE0009307000863F7E7008547A307F4FE19A8D8
:102CF0000100832784FEFD172324F4FE832784FE2E
:102D0000E39A07EE8347F4FE3E85F2506254216158
:102D10008280011106CE22CC0010A30704FE930787
:102D2000F4FEBE851145EFF0CFCF0347F4FE9307C5
:102D3000500A6316F7001385C193EF10B05683470E
:102D4000F4FEBE851385C193EF10106A0100F240B6
:102D5000624405618280411122C60008054723882C
:102D6000E1860100324441018280011106CE22CC6D
:102D70000010231704FE231604FE232004FE9307ED
:102D800050FA2302F4FEC557A302F4FE9307200F66
:102D90002315F4FE8357A4FEA183C207C18393F7D2
:102DA000F70F2303F4FE8357A4FE93F7F70FA30353
:102DB000F4FE930744FE1146BE851145EFF0EFB7D0
:102DC0001385C193EF10105E2A87894763F0E704EB
:102DD0008D472320F4FE130704FE930744FE81462B
:102DE0003A86BE851385C193EF20C021834754FEE8
:102DF000A207139707014187834764FEC207C18773
:102E0000D98FC207C1872316F4FE31A80545EFD03C
:102E1000AFC98357E4FE138717002317E4FE130797
:102E2000F007E37FF7F88357C4FE3E85F240624423
:102E300005618280397106DE22DC8000A30704FE72
:102E4000054723AAE1869307C4FD1307C004930630
:102E500020061306401F81453E85EFE09FAE130517
:102E6000800CEFD06FC41307C4FDB7070020938513
:102E700047053A85EF90506FAA876389070C23AA0C
:102E8000018691679386270691671386C704896731
:102E9000938507581145EFF0AFBE85451145EFF01A
:102EA0000FB01305800CEFD02FC0B737000013868A
:102EB00067D5B7370000938527D10D45EF10600324
:102EC000EFF0BF965D35AA873E87239CE186B70762
:102ED000002013854705EFF0DFBAAA878DCB930654
:102EE000701BCD671386874FCD6793854754014587
:102EF000EF10901C014681450145EF00907F814510
:102F00001145EFF0CFA98547A307F4FE81A0B707CD
:102F100000201385C7076139AA878DCB9306401C13
:102F2000CD671386874FCD67938507560145EF1010
:102F3000B018014681450145EF00B07B8145114540
:102F4000EFF0EFA58547A307F4FE0100B7370000B7
:102F5000138667D5B7370000938527D10D45EF005D
:102F6000507991473EC495473EC299473EC0930869
:102F7000900213088002930760021307B0049306BF
:102F8000900413068004A9452545EFD00FBC854663
:102F90009967138607828145B70700201385475438
:102FA000EFD0CFCA8347F4FE3E85F25062542161D0
:102FB0008280011106CE22CC0010AA87A307F4FE5E
:102FC000B707002093870704DC4713070008D8CB16
:102FD0008347F4FEBE850545EFE0DFA1B70700207B
:102FE00093870704DC471307000898CB0100F240E1
:102FF000624405618280011106CE22CC0010AA87AE
:1030000036872317F4FEAE872316F4FEB287231506
:10301000F4FEBA872314F4FE83C7C180C207C183BC
:103020000357E4FEB337F70093F7F70F3E87130615
:10303000A008CD67938507583A85EF10700183C7C4
:10304000D180C207C1830357C4FEB337F70093F79B
:10305000F70F3E871306B008CD67938507583A856A
:10306000EF10007F83C7C180C207C1830357A4FE4E
:10307000B337F70093F7F70F3E871306C008CD6705
:10308000938507583A85EF10A07C83C7D180C2078B
:10309000C183035784FEB337F70093F7F70F3E87DA
:1030A0001306D008CD67938507583A85EF10407A0C
:1030B00083A7C18705476376F7000D476369F7105B
:1030C00061A01305A002F53581450545EFE09F920B
:1030D0008357E4FE93F7F70F890793F7F70FBE8541
:1030E0000545EFE03F9181450545EFE0BF908357EF
:1030F000A4FE93F7F70F890793F7F70FBE850545F1
:10310000EFE05F8F1305B0026D3581450545EFE0B7
:103110007F8E8357C4FE93F7F70F850793F7F70F5A
:10312000BE850545EFE01F8D81450545EFE09F8C8D
:10313000835784FE93F7F70F850793F7F70FBE8544
:103140000545EFE03F8B61A01305A0029D35814549
:103150000545EFE03F8A8357E4FE93F7F70F8507B5
:1031600093F7F70FBE850545EFE0DF8881450545FC
:10317000EFE05F888357A4FE93F7F70F850793F777
:10318000F70FBE850545EFE0FF861305B002153544
:1031900081450545EFE01F868357C4FE93F7F70F7F
:1031A000890793F7F70FBE850545EFE0BF8481459A
:1031B0000545EFE03F84835784FE93F7F70F8907B7
:1031C00093F7F70FBE850545EFE0DF820100130599
:1031D000C002C5330100F24062440561828079710A
:1031E00006D622D400189307C4FD3E85EF10A071C7
:1031F0008547231EF4FC83C7C180C207C183231FF8
:10320000F4FC83C7D180C207C1832310F4FE83A7D7
:1032100081800547638AE70099EF99472301F4FE0F
:10322000A147A301F4FE09A8A1472301F4FEC14769
:10323000A301F4FE11A00100B73700009387C76215
:103240002324F4FEB7370000938747262326F4FE95
:103250009307C4FD3E85EF10A0700100B2502254C8
:1032600045618280011106CE22CC001083C7C18047
:103270003E8783C7D180B307F7022326F4FEB70742
:10328000002093870704DC474147D8CB83C7C18020
:10329000C207C183FD1713970701418383C7D180FC
:1032A000C207C183FD17C207C183BE863A86814526
:1032B0000145913331A8B707002083D7472DBE853C
:1032C0000545EFE0CFF98327C4FEFD172326F4FE62
:1032D0008327C4FEEDF3B707002093870704DC477C
:1032E000414798CB0100F2406244056182800111A0
:1032F00022CE00102326A4FE0327C4FE23AEE186BF
:1033000083A7C18705476376F7000D476365F7021A
:1033100011A8130700F82386E180130700FAA3869B
:10332000E18011A8130700FA2386E180130700F853
:10333000A386E180010001007244056182800111D1
:1033400022CE0010AA872E872317F4FEBA872316F1
:10335000F4FEB70700200357E4FE2399E72CB707D4
:1033600000200357C4FE239AE72C01007244056134
:103370008280797106D622D40018AA87AE86328759
:10338000231FF4FCB687231EF4FCBA87A30DF4FCBC
:1033900083C7C180C207C1830357E4FDB337F70079
:1033A00093F7F70F3E8713069019CD67938507585B
:1033B0003A85EF10E04983C7D180C207C183035724
:1033C000C4FDB337F70093F7F70F3E871306A01934
:1033D000CD67938507583A85EF108047A30704FE11
:1033E000230704FEB707002093870704DC47414703
:1033F000D8CB83A781800547638EE70C639B0720AA
:10340000A30704FED1A08347F4FE1397070141836D
:103410008357E4FDBA971395070141818347F4FE72
:103420001397070141838357E4FDBA971397070168
:1034300041838357C4FDA10793960701C182835737
:10344000C4FD3A86BE85EFF01FBB8307B4FD13872A
:1034500007FE8346F4FE5166BA878607BA97860749
:10346000130706E8BA97B69783C70700A306F4FECA
:10347000230704FE81A08347D4FE858B91CBB70739
:10348000002083D7272DBE850545EFE04FDD09A835
:10349000B707002083D7472DBE850545EFE02FDC19
:1034A0008347D4FE8583A306F4FE8347E4FE8507A5
:1034B0002307F4FE0347E4FE9D47E3FEE7FA834754
:1034C000F4FE8507A307F4FE0347F4FE9547E3FCEB
:1034D000E7F289A2A30704FE3DA28347F4FE1397F7
:1034E000070141838357E4FDBA9713950701418192
:1034F0008347F4FE1397070141838357E4FDBA978E
:103500001397070141838357C4FDBD0793960701B5
:10351000C1828357C4FD3A86BE85EFF0DFAD8307D5
:10352000B4FD938607FE8347F4FE516792061307A6
:1035300007893697BA9783C707002306F4FE8307E7
:10354000B4FD938607FE8347F4FEA10751679206F8
:10355000130707893697BA9783C70700A305F4FEB8
:10356000230704FE81A08347C4FE858B91CBB70758
:10357000002083D7272DBE850545EFE04FCE09A853
:10358000B707002083D7472DBE850545EFE02FCD37
:103590008347C4FE85832306F4FE8347E4FE850744
:1035A0002307F4FE0347E4FE9D47E3FEE7FA230703
:1035B00004FE81A08347B4FE858B91CBB707002022
:1035C00083D7272DBE850545EFE06FC909A8B7074A
:1035D000002083D7472DBE850545EFE04FC88347C0
:1035E000B4FE8583A305F4FE8347E4FE8507230725
:1035F000F4FE0347E4FE9D47E3FEE7FA8347F4FE4B
:103600008507A307F4FE0347F4FE9D47E3F7E7ECC5
:1036100011A00100B707002093870704DC4741474A
:1036200098CB0100B250225445618280797106D650
:1036300022D40018AA872E87232CC4FC231FF4FC55
:10364000BA87231EF4FC83C7C180C207C183035716
:10365000E4FDB337F70093F7F70F3E871306D01E4C
:10366000CD67938507583A85EF10801E83C7D180B8
:10367000C207C1830357C4FDB337F70093F7F70FB1
:103680003E871306E01ECD67938507583A85EF10F5
:10369000201C231704FE71A083A781800547638146
:1036A000E704B5EB0357E4FEBA878607BA978607A7
:1036B0001397070141838357E4FDBA979396070157
:1036C000C1828357E4FE032784FDBA97038707006E
:1036D0008357C4FD3A86BE853685EFF09FC92DA875
:1036E0008357E4FE8E071397070141838357E4FD58
:1036F000BA9793960701C1828357E4FE032784FD9E
:10370000BA97038707008357C4FD3A86BE8536857E
:10371000EFF03FC611A001008357E4FE8507231791
:10372000F4FE8357E4FE032784FDBA9783870700DE
:10373000A5F70100B250225445618280397106DE3E
:1037400022DC8000AA872324C4FC36872317F4FCDC
:10375000AE872316F4FCBA87A303F4FC83C7C180A9
:10376000C207C1830357E4FCB337F70093F7F70FA1
:103770003E871306B020CD67938507583A85EF1032
:10378000200D83C7D180C207C1830357C4FCB33760
:10379000F70093F7F70F3E871306C020CD67938598
:1037A00007583A85EF10C00A834774FCB337F0001E
:1037B00093F7F70F3E871306D020CD679385075800
:1037C0003A85EF10E008834774FC93B7B70093F78E
:1037D000F70F3E871306E020CD67938507583A859B
:1037E000EF100007832784FC2326F4FE854723245B
:1037F000F4FE9307C4FD314681453E85EFC05FA0CE
:10380000834774FC85073E879307C4FD3A8693057A
:1038100000023E85EFC0DF9E034774FCA54763EBC3
:10382000E70231A8032784FEBA878A07BA9786077A
:103830002324F4FE834774FCFD17A303F4FC8347A1
:1038400074FCEDF30327C4FE832784FEB367F702FD
:103850002326F4FE9307C4FD8325C4FE3E85EF10A6
:10386000D0319306C4FD0357C4FC8357E4FC36866D
:10387000BA853E85653B0100F25062542161828029
:103880005D7186C6A2C480082A8E2E832324C4FCC0
:103890003685BA853E86C2864687F2872317F4FCB2
:1038A0009A872316F4FCAA872313F4FCAE8723120D
:1038B000F4FCB2872311F4FCB6872310F4FCBA871A
:1038C000A30FF4FA83C7C180C207C1830357E4FC86
:1038D000B337F70093F7F70F3E871306B02BCD678A
:1038E000938507583A85EF00B07683C7D180C20729
:1038F000C1830357C4FCB337F70093F7F70F3E8734
:103900001306C02BCD67938507583A85EF00507496
:10391000832784FCB337F00093F7F70F3E87130635
:10392000D02BCD67938507583A85EF007072232618
:1039300004FE232404FE231304FE231204FE23208A
:1039400004FE232E04FCB707002093870704DC47FE
:103950004147D8CB0357E4FC835724FCBA97C207EE
:10396000C183FD171396070141820357C4FC835797
:1039700004FCBA97C207C183FD1793960701C18261
:103980000357C4FC8357E4FCBA853E85EFF0AFE6ED
:10399000232404FE19A2035744FC832784FE330723
:1039A000F702835704FCB357F702232EF4FC2326B7
:1039B00004FEC9A8035764FC8327C4FE3307F7023B
:1039C000835724FCB357F7022320F4FE035764FC0B
:1039D0008327C4FD3307F702832704FEBA97032722
:1039E00084FCBA9783C707002312F4FE8347F4FBD5
:1039F000B5E3835744FE8D83C207C183AE0723130B
:103A0000F4FE835744FE8983C207C1839607C20729
:103A1000C18793F7077E139707014187831764FED9
:103A2000D98FC207C1872313F4FE835744FE8D83C9
:103A3000C207C183FD8B139707014183835764FE3F
:103A4000D98F2313F4FE835764FEBE850545EFE04E
:103A50000F8125A08347F4FBC207C183035744FEAF
:103A60006377F70081450545EFD07FFF39A0C16737
:103A70009385F7FF0545EFD09FFE8327C4FE85079A
:103A80002326F4FE835724FC0327C4FEE364F7F2E5
:103A9000832784FE85072324F4FE835704FC032731
:103AA00084FEE36AF7EEB707002093870704DC473C
:103AB000414798CB0100B6402644616182804111A4
:103AC00006C622C400081308F00FC167F91705677E
:103AD0001307F70285669386D60237A64A041306B3
:103AE000062081450545EFE0EF81C1460146854549
:103AF00013057006EFC0FFADC146014685451305AD
:103B00007002EFC01FADC14605468545130540064E
:103B1000EFC03FACC1460546854513050006EFC022
:103B20005FAB83A7C1873E85EFF06FFCB70700202E
:103B300003D7272DB707002083D7472DBE853A85A9
:103B4000EFF0EFFFB707002093870704DC4313076C
:103B50000008D8CB2945EFC02FF5B7070020938781
:103B60000704DC431307000898CB13058007EFC058
:103B7000AFF3B707002093870704DC474147D8CB52
:103B80004545EFF00FC313058007EFC0EFF11305B4
:103B9000100BEFF00FC285450545EFD0BFE593054B
:103BA000C0020545EFD01FE59305D0020545EFD0D3
:103BB0007FE41305200BEFF0CFBF85450545EFD01F
:103BC0007FE39305C0020545EFD0DFE29305D00205
:103BD0000545EFD03FE21305300BEFF08FBD854573
:103BE0000545EFD03FE19305C0020545EFD09FE0CA
:103BF0009305D0020545EFD0FFDF85450545EFD0A1
:103C00007FDF9305C0020545EFD0DFDE9305D002CC
:103C10000545EFD03FDE1305400BEFF08FB99D4512
:103C20000545EFD03FDD1305000CEFF08FB893058D
:103C3000200A0545EFD01FDC89450545EFD09FDB05
:103C4000930540080545EFD0FFDA1305100CEFF09F
:103C50004FB69305500C0545EFD0DFD91305200C66
:103C6000EFF02FB5A9450545EFD0DFD881450545D3
:103C7000EFD05FD81305300CEFF0AFB39305A00879
:103C80000545EFD03FD79305A0020545EFD09FD65D
:103C90001305400CEFF0EFB19305A0080545EFD0F8
:103CA0007FD59305E00E0545EFD0DFD41305500C0A
:103CB000EFF02FB0B9450545EFD0DFD31305600312
:103CC000EFF02FAF83A7C18705476380E70281CB61
:103CD00009476381E7020D476384E70205A893055E
:103CE000000C0545EFD01FD115A081450545EFD04B
:103CF0007FD029A89305000A0545EFD0BFCF39A092
:103D0000930500060545EFD0FFCE01001305000E18
:103D1000EFF02FAABD450545EFD0DFCDE9450545BC
:103D2000EFD05FCDBD450545EFD0DFCCE145054582
:103D3000EFD05FCC9305F0020545EFD0BFCB9305E4
:103D400080020545EFD01FCB930500020545EFD05B
:103D50007FCA930520020545EFD0DFC9FD45054523
:103D6000EFD05FC9ED450545EFD0DFC893053002C0
:103D70000545EFD03FC8930570030545EFD09FC7B9
:103D800081450545EFD01FC79D450545EFD09FC62E
:103D900089450545EFD01FC6C1450545EFD09FC5F4
:103DA0001305100EEFF0EFA0BD450545EFD09FC401
:103DB000ED450545EFD01FC4BD450545EFD09FC378
:103DC000DD450545EFD01FC3930530030545EFD012
:103DD0007FC29305C0020545EFD0DFC19305900275
:103DE0000545EFD03FC19305E0020545EFD09FC0E8
:103DF000930500030545EFD0FFBF9305000305457C
:103E0000EFD05FBF930590030545EFD0BFBE93058C
:103E1000F0030545EFD01FBE81450545EFD09FBD9E
:103E20009D450545EFD01FBD8D450545EFD09FBC95
:103E3000C1450545EFD01FBC1305A002EFF06F97F9
:103E400081450545EFD01FBB89450545EFD09FBA99
:103E500081450545EFD01FBA930520080545EFD0F1
:103E60007FB91305B002EFF0CF9481450545EFD03F
:103E70007FB88D450545EFD0FFB781450545EFD0AB
:103E80007FB7930530080545EFD0DFB61305000F67
:103E9000EFF02F9285450545EFD0DFB51305600F94
:103EA000EFF02F9181450545EFD0DFB41305A00356
:103EB000EFF02F9095450545EFD0DFB31305900245
:103EC000EFF02F8FB707002093870704DC474147A7
:103ED00098CBEFF02FB9EFF08FB00100B240224441
:103EE00041018280411122C6000801003244410193
:103EF0008280011122CE00102326A4FE2324B4FECA
:103F00002322C4FE0327C4FE23A0E188832744FEA6
:103F100081C7832744FE29A0B7470000938747EE57
:103F200023AAF180832784FE81C7832784FE29A0EA
:103F3000B7470000938747EE23A8F1800100724441
:103F400005618280411122C60008B71702409843DC
:103F5000B71702401367170098C3B7170240D4433E
:103F6000B71702403707FFF8758FD8C3B71702405D
:103F70009443B71702403707F7FE7D17758F98C334
:103F8000B71702409443B71702403707FCFF7D176D
:103F9000758F98C3B7170240D443B717024037074D
:103FA00081FF7D17758FD8C3B717024037079F0071
:103FB00098C70100324441018280797106D622D42B
:103FC0000018232EA4FCEFF0FFF7232604FE232481
:103FD00004FEB71702409443B71702404167558F5C
:103FE00098C3B71702409843B7070200F98F2324FC
:103FF000F4FE8327C4FE85072326F4FE832784FE70
:1040000091E70327C4FE8567E31DF7FCB71702405D
:104010009843B7070200F98F89C785472324F4FE28
:1040200019A0232404FE032784FE85476312F71694
:1040300037170240B71702405843D8C3371702401A
:10404000B71702405843D8C337170240B71702408A
:104050005843D8C3B7170240D443B71702403707B5
:10406000C1FF7D17758FD8C30327C4FDB7479508D7
:1040700093870740631BF700B7170240D443B71775
:1040800002404167558FD8C355A80327C4FDB71711
:104090002707938707E0631CF700B7170240D44354
:1040A000B717024037073900558FD8C341A80327F7
:1040B000C4FDB7E7B80593870780631CF700B717FF
:1040C0000240D443B717024037072900558FD8C3A1
:1040D000B5A00327C4FDB7A74A0493870720631C34
:1040E000F700B7170240D443B717024037071D0047
:1040F000558FD8C3A1A00327C4FDB777DC029387EF
:1041000007C0631CF700B7170240D443B71702403B
:1041100037071100558FD8C315A00327C4FDB73743
:104120006E0193870760631BF700B7170240D44303
:10413000B717024037070500558FD8C3B71702409D
:104140009443B717024037070001558F98C3010009
:10415000B71702409843B7070002F98FF5DBB7178E
:104160000240D843B7170240719BD8C3B71702402B
:10417000D843B717024013672700D8C30100B71709
:104180000240DC4313F7C700A147E31AF7FE11A072
:1041900001A0B250225445618280011106CE22CC8A
:1041A00000102326A4FE0327C4FE23A0E182EFF023
:1041B0007FD90325C4FEEFF05FE0EF10404501001A
:1041C000F240624405618280411122C6000801006C
:1041D0000100324441018280011106CE22CC001040
:1041E000232604FE232404FE232604FE2DA02324DC
:1041F00004FE01A8EFF05FFD832784FE85072324DA
:10420000F4FE032784FEC167E366F7FE8327C4FE3E
:1042100085072326F4FE0327C4FE9307F00FE3F877
:10422000E7FC0100F240624405618280411122C630
:1042300000080100324441018280130101D9232684
:1042400011262324812623229126801C232EA4D8E4
:10425000232CB4D8232AC4D82328D4D8231504FE69
:10426000231404FE231304FE231204FE231104FE70
:10427000032584D9EFC06053AA87C207C1872313DF
:10428000F4FEB767002083D707D899C7B767002027
:10429000938707D89C4B829783C7518893F7F70F72
:1042A0006385074EB767002083D707D86389074621
:1042B000B7670020938707D8D447835724FE139706
:1042C0000701418793170701C1838507C207C1838F
:1042D000C207C1872311F4FE93170701C183032688
:1042E000C4D9BE8501458296832784D92326F4FE4E
:1042F000032584D9EFC0604BAA87C207C187231367
:10430000F4FEB7670020938707D883D727003E873E
:10431000B7670020938707D883C76700B347F702C2
:10432000C207C1872312F4FE01008327C4FE13874E
:1043300017002326E4FE83870700E5FB231404FE11
:10434000A1A88327C4FEFD172326F4FE8327C4FEFD
:10435000038707009307F002630AF7008327C4FE70
:10436000038707009307C005631BF700835784FE8C
:10437000C207C1838507C207C1832314F4FE835794
:1043800064FEC207C187C207C183FD17C207C1838C
:10439000C207C1872313F4FE835784FE13970701D6
:1043A0004183854763E8E700835764FEC207C187FE
:1043B000E3D907F8835764FEC207C18763C20702C7
:1043C0008327C4FE85072326F4FE130704EE032685
:1043D000C4FECD679385875D3A85EFC0A0381DA8E0
:1043E000835784FEC207C18381EF130704EE0326BF
:1043F000C4FECD679385475E3A85EFC0A03619A805
:10440000130704EE0326C4FECD679385875D3A85C6
:10441000EFC04035231504FE05A2231404FE59A065
:10442000930704EE3E85EFC040382A87835784FE09
:10443000C207C183BE868357A4FEC207C1833E86DE
:10444000835744FEC207C187B307F602B697636776
:10445000F706835784FEC207C1833E878357A4FEB5
:10446000C207C183BE86835744FEC207C187B38794
:10447000F602BA97035784FE42074183BA861307B0
:1044800004FFBA97038707EF930704FFB6972388C3
:10449000E7EA835784FEC207C1838507C207C18349
:1044A0002314F4FE835784FEC207C1833E878357DB
:1044B00044FEC207C187E345F7F611A00100835708
:1044C00084FEC207C183130704FFBA97238807EA53
:1044D000B7670020938707D803A8C700B7670020F5
:1044E000938707D883C777001397070141838357C2
:1044F00024FE93960701C18693970601C183850721
:10450000C207C183C207C1872311F4FE9397060136
:10451000C183B307F702C207C183130704EA3A86CF
:10452000BE85014502988357A4FEC207C183850753
:10453000C207C1832315F4FE8357A4FEC207C183BB
:10454000BE84930704EE3E85EFC020262A8783575A
:1045500044FEC207C187B357F7028507E3EFF4EAC9
:10456000130704EE032644D9CD679385475F3A8548
:10457000EFC0401FB7670020938707D803A8C70084
:10458000B7670020938707D883C777001397070181
:104590004183835724FE93960701C18693970601B2
:1045A000C1838507C207C183C207C1872311F4FEF7
:1045B00093970601C183B307F702C207C1831307AC
:1045C00004EE3A86BE8501450298832704D9638E9E
:1045D000071A231504FE05A2231404FE59A003257F
:1045E00004D9EFC0801C2A87835784FEC207C18389
:1045F000BE868357A4FEC207C1833E86835744FE0E
:10460000C207C187B307F602B6976368F7068357F8
:1046100084FEC207C1833E878357A4FEC207C183BD
:10462000BE86835744FEC207C187B387F602BA9796
:104630003E87832704D9BA97035784FE42074183F4
:10464000BA8603870700930704FFB6972388E7EA33
:10465000835784FEC207C1838507C207C183231421
:10466000F4FE835784FEC207C1833E87835744FE0E
:10467000C207C187E345F7F611A00100835784FE06
:10468000C207C183130704FFBA97238807EAB767F5
:104690000020938707D803A8C700B7670020938737
:1046A00007D883C77700139707014183835724FEF8
:1046B00093960701C18693970601C1838507C207B8
:1046C000C183C207C1872311F4FE93970601C183FA
:1046D000B307F702C207C183130704EA3A86BE850F
:1046E000014502988357A4FEC207C1838507C2070C
:1046F000C1832315F4FE8357A4FEC207C183BE8481
:10470000032504D9EFC0600A2A87835744FEC207F5
:10471000C187B357F7028507E3E0F4ECBDA0930728
:1047200004DA1306001081453E85EFB07FADB76710
:104730000020938707D89C470325C4D982978327F5
:1047400004D999CF130504DA032704D9832644D961
:10475000032684D9CD6793850760EFC0A00029A800
:10476000130704DA832644D9032684D9CD679385B9
:10477000C7613A85EFB0107FB7670020938707D8ED
:104780009847930704DA3E85029701008320C126EB
:1047900003248126832441261301012782804111AD
:1047A00006C622C4000883C7518893F7F70F91CF3C
:1047B000938541880945EFD0DFA60546938541885A
:1047C000B7670020138547D6252B0100B24022444D
:1047D00041018280797106D622D40018232EA4FCD0
:1047E000232CB4FC232AC4FC232604FEA9A0010028
:1047F000D167938707879C47930500043E85EF4068
:10480000801CAA87F5D7D167938707879C47BE8608
:10481000832784FD13871700232CE4FC838707007C
:10482000C207C183BE853685EF4000178327C4FECB
:1048300085072326F4FE0327C4FE832744FDE348AF
:10484000F7FA832744FD3E85B250225445618280A9
:10485000011106CE22CC0010AA872324B4FE232205
:10486000C4FEA307F4FE8347F4FEB1E383C741828D
:1048700093F7F70F8DCF83C7618891C301A083C7DA
:104880006188850713F7F70F2383E188EF007055E0
:10489000EFF0DF998146032644FE832584FECD6731
:1048A00013854763EFF07F99EFF01F93E5B70100A1
:1048B000F240624405618280011106CE22CC0010D4
:1048C000AA872324B4FE2322C4FE2320D4FEA307F8
:1048D000F4FE8347F4FE95E383C7518893F7F70FFF
:1048E00091CF832684FE032604FE832544FECD67F4
:1048F00013854764EFF07F9411A001000100F2409E
:10490000624405618280011122CE00102326A4FE9C
:104910008327C4FE239007008327C4FE7D5723917D
:10492000E7008327C4FE7D572392E7008327C4FE58
:104930007D572383E7008327C4FE7D57A383E700C9
:104940008327C4FE23A407008327C4FE23A60700F1
:104950008327C4FE23A807000100724405618280FA
:10496000011122CE00102326A4FE8327C4FE03D704
:104970000700B76700202390E7D88327C4FE03D73A
:104980002700B7670020938707D82391E700832784
:10499000C4FE03D74700B7670020938707D8239248
:1049A000E7008327C4FE03C76700B767002093872B
:1049B00007D82383E7008327C4FE03C77700B767C0
:1049C0000020938707D8A383E7008327C4FE984776
:1049D000B7670020938707D898C78327C4FED847B6
:1049E000B7670020938707D8D8C78327C4FE984BA2
:1049F000B7670020938707D898CB0547A382E18843
:104A00000100724405618280011122CE001023262C
:104A1000A4FE2324B4FE8327C4FED847832784FE44
:104A20003E978327C4FED8C719A88327C4FED8475A
:104A30008327C4FE9C4F1D8F8327C4FED8C78327BE
:104A4000C4FE984F8327C4FEDC47E3F0E7FE010075
:104A5000724405618280011122CE00102326A4FE3B
:104A60002324B4FE8327C4FE984B832784FE3E97FD
:104A70008327C4FE98CB19A88327C4FE984B8327AD
:104A8000C4FE9C4F1D8F8327C4FE98CB8327C4FE92
:104A9000984F8327C4FE9C4BE3F0E7FE010072446D
:104AA00005618280797106D622D40018232EA4FCD9
:104AB0008327C4FDB337F00093F7F70F3E87130643
:104AC0004005CD67938507653A85EFF07FD82326AB
:104AD00004FE8327C4FD83C70700858B93F7F70F78
:104AE00089C789472326F4FE7DA08327C4FD83C799
:104AF000070093E7170013F7F70F8327C4FD238000
:104B0000E7008327C4FD23A607008327C4FD23A84D
:104B100007008327C4FD984F8327C4FDD8CB832784
:104B2000C4FDDC4305476383E70289C70947638CFB
:104B3000E702B9A08327C4FD98478327C4FD9C4F93
:104B40003E8681453A85EFB0AFEB1DA88327C4FDB3
:104B500098478327C4FD9C4F86073E8681453A854A
:104B6000EFB00FEA31A88327C4FD98478327C4FD1F
:104B70009C4F8A073E8681453A85EFB06FE8010079
:104B80008327C4FD83C70700F99B13F7F70F83271B
:104B9000C4FD2380E7008327C4FE3E85B250225423
:104BA00045618280011106CE22CC00102326A4FE8E
:104BB0008327C4FEB337F00093F7F70F3E87130641
:104BC000C007CD67938507653A85EFF07FC88327D7
:104BD000C4FE984F8327C4FEDC4BB307F7403E85E5
:104BE000F240624405618280797106D622D40018B1
:104BF000232EA4FC232CB4FC8327C4FDB337F00080
:104C000093F7F70F3E871306A008CD6793850765D6
:104C10003A85EFF0FFC3232604FE8327C4FD83C734
:104C20000700898B93F7F70F89C785472326F4FE82
:104C3000C9A08327C4FD83C7070093E7270013F7A4
:104C4000F70F8327C4FD2380E7008327C4FDDC4BD7
:104C5000D9C38327C4FDDC4305476385E70289C7C1
:104C600009476380E70491A88327C4FD98478327F9
:104C7000C4FDDC47BA97032784FD1377F70F238021
:104C8000E70025A88327C4FD98478327C4FDDC4798
:104C90008607BA97032784FD420741832390E700E4
:104CA00029A88327C4FD98478327C4FDDC478A07CA
:104CB000BA97032784FD98C3010085450325C4FDE9
:104CC000EFF09FD48327C4FDDC4B1387F7FF8327C6
:104CD000C4FDD8CB21A091472326F4FE8327C4FD31
:104CE00083C70700F59B13F7F70F8327C4FD2380C5
:104CF000E7008327C4FE3E85B2502254456182807E
:104D0000797106D622D40018232EA4FC232CB4FCDF
:104D1000232AC4FC8327C4FDB337F00093F7F70FB1
:104D20003E871306C00BCD67938507653A85EFF084
:104D30003FB2232604FE232404FE832784FD89E753
:104D40008D472326F4FE45AC8327C4FD83C70700A7
:104D5000898B93F7F70F89C785472326F4FE61AC4B
:104D60008327C4FD83C7070093E7270013F7F70FD6
:104D70008327C4FD2380E7008327C4FDDC4B032782
:104D800044FD63ECE7248327C4FD984F8327C4FDCB
:104D9000DC47B307F7402324F4FE032744FD8327B1
:104DA00084FE63F2E7188327C4FDDC430547638F65
:104DB000E70689C709476389E70E31A48327C4FD45
:104DC00098478327C4FDDC47BA97032684FE8325D2
:104DD00084FD3E85EFA0306A832584FE0325C4FD53
:104DE000EFF09FC28327C4FD98478327C4FDDC47AB
:104DF000B306F700032784FD832784FEB305F7007D
:104E0000032744FD832784FEB307F7403E8636859B
:104E1000EFA07066032744FD832784FEB307F740A5
:104E2000BE850325C4FDEFF03FBE71AA8327C4FDF4
:104E300098478327C4FDDC4786073E97832784FE77
:104E400086073E86832584FD3A85EFA0D0628325C0
:104E500084FE0325C4FDEFF03FBB8327C4FD9847C4
:104E60008327C4FDDC478607B306F700832784FE4B
:104E70008607032784FDB305F700032744FD832736
:104E800084FEB307F74086073E863685EFA0B05E06
:104E9000032744FD832784FEB307F740BE8503251F
:104EA000C4FDEFF07FB605A28327C4FD9847832792
:104EB000C4FDDC478A073E97832784FE8A073E8627
:104EC000832584FD3A85EFA0105B832584FE0325AE
:104ED000C4FDEFF07FB38327C4FD98478327C4FD4B
:104EE000DC478A07B306F700832784FE8A07032777
:104EF00084FDB305F700032744FD832784FEB30731
:104F0000F7408A073E863685EFA0F056032744FD1A
:104F1000832784FEB307F740BE850325C4FDEFF069
:104F2000BFAE01004DA08327C4FDDC430547638C61
:104F3000E70289C709476380E70671A08327C4FD9C
:104F400098478327C4FDDC47BA97032644FD832591
:104F500084FD3E85EFA03052832544FD0325C4FD2A
:104F6000EFF09FAA8DA08327C4FD98478327C4FD37
:104F7000DC4786073E97832744FD86073E868325C8
:104F800084FD3A85EFA0304F832544FD0325C4FD01
:104F9000EFF09FA70DA88327C4FD98478327C4FD82
:104FA000DC478A073E97832744FD8A073E86832590
:104FB00084FD3A85EFA0304C832544FD0325C4FDD4
:104FC000EFF09FA401008327C4FDD84B832744FD45
:104FD0001D8F8327C4FDD8CB21A091472326F4FE43
:104FE0008327C4FD83C70700F59B13F7F70F8327BB
:104FF000C4FD2380E7008327C4FE3E85B2502254BF
:1050000045618280797106D622D40018232EA4FC33
:10501000232CB4FC232AC4FC2328D4FC8327C4FDFE
:10502000B337F00093F7F70F3E8713067016CD677E
:10503000938507653A85EFF0BF81832744FDB33739
:10504000F00093F7F70F3E8713068016CD67938520
:1050500007653A85EFF0CFFF232604FE832784FD02
:1050600089E78D472326F4FEA1AC8327C4FD83C7BF
:10507000070093E7470013F7F70F8327C4FD23804A
:10508000E7000325C4FDEFF0FFB12324A4FE83272E
:1050900044FD9C43032784FE637AF700832744FD85
:1050A000032784FE98C395472326F4FE8327C4FD77
:1050B000984F8327C4FD9C4BB307F7402322F4FE8F
:1050C000832744FD9C43032744FE6365F708832739
:1050D000C4FDDC4305476388E70289C70947638746
:1050E000E704BDA28327C4FD98478327C4FD9C4BDA
:1050F0003E97832744FD9C433E86BA85032584FD65
:10510000EFA07037B1A28327C4FD98478327C4FD61
:105110009C4B86073E97832744FD9C4386073E862B
:10512000BA85032584FDEFA010351DA28327C4FD99
:1051300098478327C4FD9C4B8A073E97832744FDED
:105140009C438A073E86BA85032584FDEFA0B032D2
:105150000100FDA88327C4FDDC430547638AE704FB
:1051600089C70947638EE708E5A08327C4FD9847F0
:105170008327C4FD9C4BBA97032644FEBE850325B6
:1051800084FDEFA0502F032784FD832744FEB30640
:10519000F7008327C4FD8C47832744FD984383276A
:1051A00044FEB307F7403E863685EFA0D02C4DA0D5
:1051B0008327C4FD98478327C4FD9C4B86073E97F1
:1051C000832744FE86073E86BA85032584FDEFA02B
:1051D000902A832744FE8607032784FDB306F70041
:1051E0008327C4FD8C47832744FD9843832744FECF
:1051F000B307F74086073E863685EFA0D02789A8FB
:105200008327C4FD98478327C4FD9C4B8A073E979C
:10521000832744FE8A073E86BA85032584FDEFA0D6
:105220009025832744FE8A07032784FDB306F700F1
:105230008327C4FD8C47832744FD9843832744FE7E
:10524000B307F7408A073E863685EFA0D0220100DB
:10525000832704FDB5E78327C4FD83C70700858B3B
:1052600093F7F70F89C789472326F4FE91A8832770
:10527000C4FD83C7070093E7170013F7F70F8327D1
:10528000C4FD2380E700832744FD9C43BE8503259E
:10529000C4FDEFF04FFC8327C4FDD84B832744FDAA
:1052A0009C433E978327C4FDD8CB8327C4FD83C787
:1052B0000700F99B13F7F70F8327C4FD2380E7004E
:1052C0008327C4FD83C70700918B13F7F70F83274C
:1052D000C4FD2380E7008327C4FE3E85B2502254DC
:1052E00045618280797106D622D40018232EA4FC51
:1052F000232CB4FC232AC4FC2328D4FC8327C4FD1C
:10530000B337F00093F7F70F3E8713068021CD6780
:10531000938507653A85EFF0AFD3232604FE8327F4
:1053200044FD89E78D472326F4FE89A08327C4FD29
:10533000032744FD98C78327C4FD238007008327E4
:10534000C4FD032784FDD8C38327C4FD23A607001B
:105350008327C4FD23A807008327C4FD032704FD7A
:10536000D8CB8327C4FD032704FD98CF8327C4FE31
:105370003E85B250225445618280397106DE22DCBE
:1053800080002326A4FC2324B4FC8327C4FCB33769
:10539000F00093F7F70F3E8713060008CD6793855B
:1053A00087693A85EFF0CFCAA30704FE232404FEE1
:1053B0008327C4FCE1CB832784FC63D307028327C4
:1053C000C4FC138717002326E4FC1307D0022380B4
:1053D000E700832784FCB307F0402324F4FCB9A83A
:1053E000832784FCA1EF8327C4FC130700032380D9
:1053F000E70051A8032784FCA947B367F7022324D9
:10540000F4FE832784FE13D7F741832784FEB98FE8
:10541000998F0347F4FE93061700A307D4FEBA86BC
:1054200013F7F70F930704FFB6972384E7FE0327CC
:1054300084FCA947B347F7022324F4FC832784FCA8
:10544000D5FB2DA88347F4FEFD17130704FFBA9779
:1054500083C787FE9387070393F6F70F8327C4FC60
:10546000138717002326E4FC1397860161872380A6
:10547000E7008347F4FEFD17A307F4FE8347F4FE1D
:10548000F1F311A001000100F25062542161828009
:10549000411122C600089967938787087390078097
:1054A0000100324441018280411122C600089967FF
:1054B000739007800100324441018280011122CEA5
:1054C00000102326A4FE8327C4FEFD8B0547B316D8
:1054D000F70037E700E08327C4FE9583938707042E
:1054E0008A07BA9794C30100724405618280011152
:1054F00022CE00102326A4FE8327C4FEFD8B054781
:10550000B316F70037E700E08327C4FE958393873F
:1055100007068A07BA9794C3010072440561828026
:10552000011122CE00102326A4FEAE87A305F4FEAF
:1055300037E700E08327C4FEBA970347B4FE238011
:10554000E7400100724405618280011106CE22CC41
:1055500000102326A4FE0325C4FEEFF03FF6010051
:10556000F240624405618280011106CE22CC001017
:105570002326A4FE0325C4FEEFF07FF70100F240CE
:10558000624405618280011106CE22CC00102326E0
:10559000A4FEAE87A305F4FE8347B4FEBE850325B3
:1055A000C4FEEFF0FFF70100F24062440561828023
:1055B000011106CE22CC00102326A4FE8327C4FEB0
:1055C00099C783A781881387F7FF23A4E18883A75E
:1055D000818899E3EFF0DFEB0100F240624405615E
:1055E0008280411106C622C4000883A7818899E3FE
:1055F000EFF09FEB83A781881387170023A4E1882E
:1056000083A781883E85B2402244410182804111B6
:1056100006C622C400080145EFF09FF90100B24020
:10562000224441018280357106CF16CD1ACB1EC9A6
:1056300022C72AC52EC332C1B6DEBADCBEDAC2D852
:10564000C6D6F2D4F6D2FAD0FECE82E686E48AE25C
:105650008EE012FE16FC1AFA1EF82AF62EF432F22A
:1056600036F03AEE3EEC42EA46E872E676E47AE25A
:105670007EE0001193055052B74701401385078023
:10568000EF30C038AA8789CB93055052B747014005
:1056900013850780EF30A0470100FA40EA425A43E1
:1056A000CA433A442A459A450A46F6566657D6579B
:1056B0004658B658265E965E065FF64F3660A66080
:1056C000166186617272E2725273C2733275A2758C
:1056D000127682767267E2675268C268326EA26E94
:1056E000126F826F0D6173002030357106CF16CDB9
:1056F0001ACB1EC922C72AC52EC332C1B6DEBADCF8
:10570000BEDAC2D8C6D6F2D4F6D2FAD0FECE82E63F
:1057100086E48AE28EE012FE16FC1AFA1EF82AF6D9
:105720002EF432F236F03AEE3EEC42EA46E872E609
:1057300076E47AE27EE0001193055052B7470040CC
:1057400013850740EF30802CAA8789CB93055052F0
:10575000B747004013850740EF30603B0100FA4037
:10576000EA425A43CA433A442A459A450A46F656FB
:105770006657D6574658B658265E965E065FF64F71
:105780003660A660166186617272E2725273C273ED
:105790003275A275127682767267E2675268C268C5
:1057A000326EA26E126F826F0D6173002030357100
:1057B00006CF16CD1ACB1EC922C72AC52EC332C1A9
:1057C000B6DEBADCBEDAC2D8C6D6F2D4F6D2FAD089
:1057D000FECE82E686E48AE28EE012FE16FC1AFA1B
:1057E0001EF82AF62EF432F236F03AEE3EEC42EA99
:1057F00046E872E676E47AE27EE0001193055052C4
:10580000B757004013850780EF304020AA8799CB17
:10581000EFE0FFF893055052B7570040138507801B
:10582000EF30E02E0100FA40EA425A43CA433A44BC
:105830002A459A450A46F6566657D6574658B658E8
:10584000265E965E065FF64F3660A660166186613C
:105850007272E2725273C2733275A27512768276D8
:105860007267E2675268C268326EA26E126F826F10
:105870000D6173002030357106CF16CD1ACB1EC9CD
:1058800022C72AC52EC332C1B6DEBADCBEDAC2D800
:10589000C6D6F2D4F6D2FAD0FECE82E686E48AE20A
:1058A0008EE012FE16FC1AFA1EF82AF62EF432F2D8
:1058B00036F03AEE3EEC42EA46E872E676E47AE208
:1058C0007EE0001193055052B7570040138507C082
:1058D000EF30C013AA8789CB93055052B7570040C9
:1058E000138507C0EF30A0220100FA40EA425A4374
:1058F000CA433A442A459A450A46F6566657D65749
:105900004658B658265E965E065FF64F3660A6602D
:10591000166186617272E2725273C2733275A27539
:10592000127682767267E2675268C268326EA26E41
:10593000126F826F0D6173002030357106CF16CD66
:105940001ACB1EC922C72AC52EC332C1B6DEBADCA5
:10595000BEDAC2D8C6D6F2D4F6D2FAD0FECE82E6ED
:1059600086E48AE28EE012FE16FC1AFA1EF82AF687
:105970002EF432F236F03AEE3EEC42EA46E872E6B7
:1059800076E47AE27EE000119305505237550040EC
:10599000EF30C007AA8791CB83A701818297930537
:1059A000505237550040EF3080160100FA40EA426D
:1059B0005A43CA433A442A459A450A46F656665718
:1059C000D6574658B658265E965E065FF64F366046
:1059D000A660166186617272E2725273C27332758A
:1059E000A275127682767267E2675268C268326E7A
:1059F000A26E126F826F0D6173002030357106CF79
:105A000016CD1ACB1EC922C72AC52EC332C1B6DE97
:105A1000BADCBEDAC2D8C6D6F2D4F6D2FAD0FECEFE
:105A200082E686E48AE28EE012FE16FC1AFA1EF87E
:105A30002AF62EF432F236F03AEE3EEC42EA46E82E
:105A400072E676E47AE27EE0001193055052B727C1
:105A5000004013850780EF20707BAA8789CB9305D0
:105A60005052B727004013850780EF30400A0100ED
:105A7000FA40EA425A43CA433A442A459A450A46FA
:105A8000F6566657D6574658B658265E965E065F57
:105A9000F64F3660A660166186617272E2725273CA
:105AA000C2733275A275127682767267E2675268A7
:105AB000C268326EA26E126F826F0D617300203069
:105AC000357106CF16CD1ACB1EC922C72AC52EC3E3
:105AD00032C1B6DEBADCBEDAC2D8C6D6F2D4F6D24D
